:020000040800F2
:100000001804002085010008D7050008AF05000886
:10001000D5050008F90100084F090008000000009C
:10002000000000000000000000000000BD06000805
:10003000FB01000800000000D90500089107000836
:100040009F0100089F0100089F0100089F01000810
:100050009F0100089F0100089F0100089F01000800
:100060009F0100089F0100089F0100089F010008F0
:100070009F0100089F0100089F0100089F010008E0
:100080009F0100089F0100089F0100089F010008D0
:100090009F0100089F0100089F0100089F010008C0
:1000A0009F0100089F0100089F0100089F010008B0
:1000B0009F0100089F0100089F0100089F010008A0
:1000C0009F0100089F0100089F0100089F01000890
:1000D0009F0100089F0100089F0100089F01000880
:1000E0009F0100089F0100089F0100080000000018
:1000F0000000000000000000000000000000000000
:1001000000000000000000009F0100089F0100089F
:100110009F0100089F0100089F0100089F0100083F
:100120009F0100089F0100089F0100089F0100082F
:100130009F0100089F0100089F0100089F0100081F
:100140009F0100089F0100089F0100089F0100080F
:10015000DFF80CD000F03EF800480047090B00081B
:1001600018040020EFF30980704780F30988704776
:10017000EFF30880704780F30888704740BA7047F3
:10018000C0BA70470648804706480047FEE7FEE7CA
:10019000FEE7FEE7FEE7FEE7FEE7FEE7FEE7FEE737
:1001A000950700085101000830B50B4601460020B4
:1001B0002022012409E021FA02F59D4205D303FA29
:1001C00002F5491B04FA02F52844151EA2F10102AA
:1001D000F1DC30BD064C074D06E0E06840F001035D
:1001E00094E8070098471034AC42F6D3FFF7B4FF09
:1001F000A00D0008C00D0008FEE77047F0B50546E9
:100200001848194C4FF43027854241F6FD763846A0
:1002100013D200F04BF904280ED1206940F00200FF
:1002200020616561206940F040002061384600F09F
:100230003DF9216931402161F0BD00F048F9042801
:10024000FAD1206D40F0020020656565206D40F018
:1002500040002065384600F03AF9216D31402165B3
:10026000F0BD0000FFFF07080020024008490420FD
:10027000CA68D20701D001207047CA68520701D569
:1002800002207047C968C906FBD5032070470000EB
:100290000020024008490420CA6CD20701D0012086
:1002A0007047CA6C520701D502207047C96CC90655
:1002B000FBD5032070470000002002402DE9F041EB
:1002C0000C4D0B4C6F1E2E682046314600F05AF83C
:1002D000042802D00120BDE8F0812068B04201D09E
:1002E0000220F8E7241D2D1DBC42ECD30020F2E7CC
:1002F000008000080000080870B5094CF02004EBED
:10030000C02508E02046FFF779FF042801D001202E
:1003100070BD04F50064A542F4D8002070BD000053
:10032000008000082DE9F04104464FF400580E46C5
:10033000404600F0DDF81149114D41F6FE778C4240
:100340000ED204280AD1286940F0010028612680D5
:10035000404600F0ABF8296939402961BDE8F081D9
:100360000428FBD1286D40F0010028652680404616
:1003700000F0ADF8296D39402965EFE7FFFF070868
:10038000002002402DE9F847044600203E4A41F68D
:10039000FE750090A61C0F0CA81CDFF8F0901FFA49
:1003A00081F894421ED2824600F080F8042817D1CA
:1003B000D9F8101041F00101C9F81010A4F800801C
:1003C0005446504600F094F8042804D10096378033
:1003D000204600F08DF8D9F810202A40C9F81020E6
:1003E000BDE8F88728498246491C8C4233D100F089
:1003F0005DF80428484608D001692940016150464B
:1004000000F065F8042810D01FE0006940F00101F9
:10041000C9F81010A4F80080504600F047F8D9F849
:1004200010002840C9F81000E9E7D9F850004C4600
:1004300040F00100C9F8500000963780504600F0A7
:1004400046F8216D29402165CAE7D9F850202A4095
:10045000C9F85020C4E700F03AF80428C0D1D9F810
:10046000501041F00101C9F85010A4F80080544622
:10047000504600F02CF80428E7D10096378020463B
:1004800000F025F8E1E70000FDFF0708002002402A
:10049000044803494160044A426041644264704731
:1004A0002301674500200240AB89EFCD00B503462C
:1004B000FFF7DCFE02E0FFF7D9FE5B1E012803D048
:1004C000002B00D1052000BD002BF4D1FAE700B5C8
:1004D0000346FFF7DFFE02E0FFF7DCFE5B1E0128AC
:1004E00003D0002B00D1052000BD002BF4D1FAE78A
:1004F00000B50346FFF7BAFE02E0FFF7B7FE5B1E4A
:10050000012803D0002B00D1052000BD002BF4D121
:10051000FAE7F0B5CC78002204F00F03E40601D529
:100520008C7823430C784FF00F0C14F0FF0F4FF032
:10053000010E1BD005680E880EFA02F42640A64272
:1005400010D196000CFA06F725EA070703FA06F51C
:10055000CE783D43282E02D0482E02D002E04461DE
:1005600000E00461521C082AE5D305600A88FF2ACE
:100570001CD94468002202F108060EFA06F50E881E
:100580002E40AE420ED196000CFA06F7BC4303FA99
:1005900006F7CE783C43282E00D14561CE78482E10
:1005A00000D10561521C082AE5D34460F0BDFEE786
:1005B00038B50168064A1140B1F1005F06D14168C3
:1005C00000910C460068FFF7D6FDA047012038BD1A
:1005D0000000FE2FFEE7704770470000044A002924
:1005E000916901D0014300E08143916170470000AF
:1005F00000100240F0B52C4B59682C4A11F00C0148
:100600004FF00F0604D02A4C042903D0082903D048
:10061000026028E0046026E059685A6806EA9141C1
:1006200002F480320D2901D0891C00E00621BAB104
:10063000DA6A12F4803FDA6A02F00F0202F1010274
:100640000AD0DD6AC5F30317DD6A7F1CB4FBF7F43B
:10065000C5F30325AD1C6C43B4FBF2F24A43D7E764
:10066000144A514301605968134A06EA1111545C57
:100670000168E14041605C68072505EA1424145DC7
:1006800021FA04F484605C6805EAD424125DD14048
:10069000C1605A68032303EA9232074B1B1F9A5C1E
:1006A000B1FBF2F10161F0BD0010024000127A00CE
:1006B00040787D0100093D000400002070470000E3
:1006C0000CB500222E4800920192016841F480315D
:1006D00001604FF4A063016801F4003101910099B9
:1006E000491C0091019911B900999942F3D101680F
:1006F000890342D50121019122490A6842F0100282
:100700000A600A6822F003020A600A6842F00202E4
:100710000A604168416041684160416841F480611C
:100720004160C16A184A1140C162C16A174A114347
:10073000C162016841F08061016001680901FCD576
:10074000416821F47C114160416841F4E811416045
:10075000016841F08071016001688901FCD5416840
:1007600021F003014160416841F0020141604168AC
:10077000C1F381010229FAD10CBD01920CBD000028
:10078000001002400020024000F0FEFF440601007D
:1007900070470000124810B5016841F00101016086
:1007A0004168104A1140416001680F4A11400160E0
:1007B000016821F480210160416821F4FE0141605B
:1007C000016821F0A05101604FF47F018160002198
:1007D000C162FFF775FF05494FF00060086010BD6A
:1007E000001002400000FFF0FFFFF6FE08ED00E001
:1007F0000029818902D041F4005101E021F4005127
:10080000818170471FB500F099F84FF4E1300090F6
:100810000020ADF80600ADF80400ADF80800ADF812
:100820000C000C20064CADF80A006946204600F08A
:100830002FF801212046FFF7DBFF00F003F81FBD72
:100840000038014038B518208DF803004FF40070CF
:10085000ADF800000320094C8DF8020069462046DF
:10086000FFF757FE04218DF803100902ADF80010C0
:1008700069462046FFF74DFE38BD000000080140E4
:100880000246002012880A4200D001207047000072
:1008900030B50446008A85B00D464CF6FF7108401D
:1008A000E98801432182A0894EF6F3110840A98806
:1008B0002A8911436A8902431143A181A08A4FF614
:1008C000FF410840A9890143A1826846FFF792FED3
:1008D0001948844201D1039800E00298A1890904D3
:1008E00000EBC00101EB0010296801D5490000E0D0
:1008F0008900B0FBF1F06422B0FBF2F109010B09B1
:100900006FF018056B4300EB8300A3891D044FF0C3
:10091000320306D503EBC000B0FBF2F000F0070095
:1009200005E003EB0010B0FBF2F000F00F0008430D
:10093000208105B030BD000000380140012144F2A3
:100940000400FFF74BBEC1F3080181807047FEE74A
:100950000FB4054B10B503A9044A029800F018F82B
:1009600010BC5DF814FB0000E50A0008140000202C
:1009700002E008C8121F08C1002AFAD17047704768
:10098000002001E001C1121F002AFBD170470000C6
:100990002DE9FF4F89B09B460446002506E0252837
:1009A0000BD05A460B999047641C6D1C2078002888
:1009B000F5D10DB02846BDE8F08F0027B8460122DA
:1009C000474900E0074314F8013F203B02FA03F0D7
:1009D0000842F7D120782E2819D114F8010F47F0DA
:1009E00004072A280ED06FF02F022078A0F13001E2
:1009F00009290CD808EB880102EB410100EB010842
:100A0000641CF2E70A98641C50F8048B0A90207862
:100A10000028CED0642808D0692806D075281ED0BA
:100A20005A460B9990476D1C58E00A994FF00A09F5
:100A300001C90A91002802DA40422D2102E039055D
:100A400004D52B218DF82010012103E0F90704D0F3
:100A50002021F7E78A4608AE0DE00021FAE70A995F
:100A60004FF00A0901C90A91F7E74946FFF79CFBD5
:100A7000303106F8011D0028F7D1ADEB060000F17A
:100A80002009780701D44FF00108C84502DDA8EB22
:100A9000090000E000208046002706E008A85A462A
:100AA000C05D0B9990476D1C7F1C5745F6DB04E039
:100AB00030205A460B9990476D1CB8F10001A8F1FF
:100AC0000108F5DC05E016F8010B5A460B99904732
:100AD0006D1CB9F10001A9F10109F4DC641C65E7A2
:100AE0000928010070B5074D0446C1B22846FFF73A
:100AF0002AFF80212846FFF7C3FE0028F9D02046B0
:100B000070BD00000038014070B5FFF743FEFFF7ED
:100B100079FE26A0FFF71CFF2548FFF719FF25489F
:100B2000FFF716FF2448FFF713FF2448FFF710FFD5
:100B30001F48FFF70DFF22A0FFF70AFF214C22A05C
:100B400025882946FFF704FF012D0CD01F4C216892
:100B5000491C27D01EA0FFF7FBFE72B62046FFF708
:100B600027FD002070BDFFF793FC02E01FA0FFF7F8
:100B7000EFFEFFF7C1FB0028F8D102E020A0FFF74D
:100B8000E7FEFFF79BFB0028F8D12046FFF736FB76
:100B90000428FAD100212046FFF7C4FB0428F9D12C
:100BA00000F044F819A0FFF7D3FEDAE70C000000CC
:100BB0004C0D0008500C0008A40C0008F80C0008AC
:100BC0000D0A00000040000825640A0000800008AB
:100BD0000A2D3E4A756D7020746F20757365722002
:100BE00070726F6772616D21210A00004572617336
:100BF000652041505032206572726F720A00000009
:100C0000494150206572726F720A00000A2D3E54ED
:100C100068652070726F6772616D20697320696EFC
:100C2000656666696361637921210A00012080F3AA
:100C3000138805480168054A01F4E0611143016029
:100C4000BFF3408FFEE700000CED00E00400FA0562
:100C50000D0A2A2A2A2A2A2A2A2A2A2A2A2A2A2A31
:100C60002A2A2A2A2A2A2A2A2A2A2020426F6F740C
:100C70004C6F6164657220666F72204543552D523A
:100C80002D4D332020202020202A2A2A2A2A2A2AD1
:100C90002A2A2A2A2A2A2A2A2A2A2A2A2A2A2A2AB4
:100CA0002A0000000D0A2A2A2A2A2A2A2A2A2A2A5F
:100CB0002A2A2A2A2A2A2A2A2A2A2A2A2A2A2A2A94
:100CC0002A202044657369676E2062792059754E29
:100CD000656E67204045435520202A2A2A2A2A2A61
:100CE0002A2A2A2A2A2A2A2A2A2A2A2A2A2A2A2A64
:100CF0002A2A2A2A2A0000000D0A2A2A2A2A2A2A0F
:100D00002A2A2A2A2A2A2A2A2A2A2A2A2A2A2A2A43
:100D10002A2A2A2A2A2A2A202020323031372E3025
:100D20003320202020202020202020202A2A2A2A88
:100D30002A2A2A2A2A2A2A2A2A2A2A2A2A2A2A2A13
:100D40002A2A2A2A2A2A2A2A2A0000000D0A2A2ABE
:100D50002A2A2A2A2A2A2A2A2A2A2A2A2A2A2A2AF3
:100D60002A2A2A2A2A2A2A2A2A2A2A2A2A2A2A2AE3
:100D70002A2A2A2A2A2A2A2A2A2A2A2A2A2A2A2AD3
:100D80002A2A2A2A2A2A2A2A2A2A2A2A2A2A2A2AC3
:100D90002A2A2A2A2A2A2A2A2A2A2A2A2A00000031
:100DA000C00D0008000000201800000070090008B5
:100DB000D80D000818000020000400008009000879
:100DC00002040608000000000102030401020304FB
:080DD0000607080900000000FD
:04000005080001519D
:00000001FF
