:020000040800F2
:10000000280B0020850100081B0A0008F1090008E0
:10001000190A0008FD0200089514000800000000FD
:10002000000000000000000000000000DD0C0008DF
:10003000BD03000800000000810A00084D0F000801
:100040009F0100089F0100089F0100089F01000810
:100050009F0100089F0100089F0100089F01000800
:100060009F0100089F0100089F0100089F010008F0
:100070009F0100089F0100089F0100089F010008E0
:100080009F0100089F0100089F0100089F010008D0
:100090009F0100089F0100089F0100089F010008C0
:1000A0009F0100089F0100089F0100089F010008B0
:1000B0009F010008AD0F00089F0100089F01000884
:1000C0009F0100089F0100089F0100089F01000890
:1000D0009F0100089F0100089F0100089F01000880
:1000E0009F0100089F0100089F0100080000000018
:1000F0000000000000000000000000000000000000
:1001000000000000000000009F0100089F0100089F
:100110009F0100089F0100089F0100089F0100083F
:100120009F0100089F0100089F0100089F0100082F
:100130009F0100089F0100089F0100089F0100081F
:100140009F0100089F0100089F0100089F0100080F
:10015000DFF80CD000F03EF800480047E116000838
:10016000280B0020EFF30980704780F3098870475F
:10017000EFF30880704780F30888704740BA7047F3
:10018000C0BA70470648804706480047FEE7FEE7CA
:10019000FEE7FEE7FEE7FEE7FEE7FEE7FEE7FEE737
:1001A000510F00085101000830B50B4601460020F0
:1001B0002022012409E021FA02F59D4205D303FA29
:1001C00002F5491B04FA02F52844151EA2F10102AA
:1001D000F1DC30BD064C074D06E0E06840F001035D
:1001E00094E8070098471034AC42F6D3FFF7B4FF09
:1001F0004C1E00086C1E000898B10078A0F1300178
:10020000092901D8C8B27047A0F14101052901D8D8
:10021000373804E0A0F161010529F4D85738C0B29D
:100220007047FF207047000010B50BA001F034F9B3
:100230000AA001F031F913A001F02EF91BA001F082
:100240002BF922A001F028F926A001F025F9BDE83C
:10025000104029A001F020B90A0D00002020202024
:1002600031203A204C6F6164204865782046696CE3
:100270006520546F20466C617368204F662043529E
:10028000430A0D002020202032203A204C6F616468
:10029000204865782046696C6520546F20466C6163
:1002A0007368204F662053554D0A0D0020202020F2
:1002B00033203A2053746172742055736572205054
:1002C000726F6772616D200A0D00000020202020EF
:1002D00034203A20457261736520466C6173682052
:1002E0000A0D00002020202052203A205265626F23
:1002F0006F74200A0D0000002D3E0000FEE7000094
:1003000008B50021009148282BD019DC322831D0C3
:100310000BDC0D282CD0312806D120A001F0BCF830
:10032000432001F0B3FA009008BD33282AD03428C6
:10033000FAD11BA001F0B0F8BDE8084000F040B8C9
:1003400068280ED004DC522823D05328ECD103E0D7
:1003500072281ED07328E7D112A0BDE8084001F032
:100360009BB811A001F098F8BDE80840FFF75CBF0A
:100370000EA0F2E70FA001F08FF8BDE808401520AD
:1003800001F084BA0CA001F087F8BDE8084000F045
:100390000FBDBDE80840002000F02CBB310000007C
:1003A0003400000053000000480000000A0D2D3EFC
:1003B0000000000032000000330000007047000021
:1003C0002DE9F047002426462546A146A04648A030
:1003D00001F062F800F0D4FF074635281ED00EDC8D
:1003E00032281BD006DC0D283BD0302816D0312F08
:1003F0005CD113E0332811D0342F57D10EE03928C7
:100400000CD006DC362809D0372807D0382F4DD13C
:1004100004E0512863D0712F48D160E015B1012D5F
:1004200015D043E001F020F804EB840007EB400412
:10043000303C4FF001087F2C38D935A001F02CF862
:1004400008244FF0000837A001F026F82EE001F054
:100450000BF806EB860007EB40064FF00208303E33
:1004600024E015B1012D08D020E0B8F1010F1DD115
:1004700036A001F011F8012518E0B8F1020F15D1EE
:10048000A64208D239A001F007F826A001F004F82E
:100490000824002609E0082C0DD243A000F0FCFF40
:1004A00020A000F0F9FF08247F260025B9F1000FF5
:1004B00090D0BDE8F08746A000F0EEFF324621461E
:1004C0004CA000F0E9FF3146204600F0C9F858A0E2
:1004D00000F0E2FFBDE8F0475AA000F0DDBF59A0F0
:1004E00000F0DAFF512000F0BFFF58A0F0E7000055
:1004F0000A0D2D3E506C6561736520696E707574D0
:1005000020737461727420736563746F723A0000B3
:100510000A0D2D3E4572726F7220536563746F72BF
:10052000212100000A0D2D3E506C65617365206924
:100530006E70757420737461727420736563746F68
:100540007220616761696E3A000000000A0D2D3E5D
:10055000506C6561736520696E70757420656E649A
:1005600020736563746F723A000000000A0D2D3E1F
:10057000537461727420736563746F7220697320A1
:10058000736D616C6C20656E64207363746F722C84
:10059000706C6561736520696E7075742061676148
:1005A000696E2121000000000A0D2D3E5363746F17
:1005B00072203020746F203720697320626F6F744F
:1005C0006C6F61646572207A6F6E65212100000096
:1005D0000A0D2D3E45726173696E6720466C61732A
:1005E000682C506C6561736520576169742E2E2EDE
:1005F000000000000A0D2D3E45726173696E672090
:100600005374617274536563746F72203A20256469
:100610000A0D2D3E45726173696E672053746172D5
:1006200074536563746F72203A20256400000000E3
:100630000A0D2D3E457261736520466C617368201A
:100640004F4B21000A0D2D3E000000000A0D2D3EEB
:1006500051756974206F6620657261736521210090
:100660002DE9F041054604274E1B01D4082D02D286
:100670000220BDE8F08100F05DF800244FF0006832
:1006800008E0291908EBC12000F008F80746042803
:10069000EFD1641CB442F4D93846EAE770B5054698
:1006A0004FF43026304600F051F8042811D1094C9F
:1006B000206940F0020020616561206940F040003F
:1006C0002061304600F042F8216941F6FD72114088
:1006D000216170BD0020024008490420CA68D20789
:1006E00001D001207047CA68520701D50220704727
:1006F000C968C906FBD503207047000000200240EE
:10070000F0B506464FF400570D46384600F01EF887
:1007100004280CD1064C206940F00100206135808E
:10072000384600F013F82169BA1E11402161F0BD6E
:10073000002002400348024941600349416070477C
:100740002301674500200240AB89EFCD00B5034689
:10075000FFF7C2FF02E0FFF7BFFF5B1E012803D0D7
:10076000002B00D1052000BD002BF4D1FAE7F0B535
:10077000CC78002204F00F03E40601D58C782343E3
:100780000C784FF00F0C14F0FF0F4FF0010E1BD040
:1007900005680E880EFA02F42640A64210D1960093
:1007A0000CFA06F725EA070703FA06F5CE783D436B
:1007B000282E02D0482E02D002E0446100E00461FD
:1007C000521C082AE5D305600A88FF2A1CD9446810
:1007D000002202F108060EFA06F50E882E40AE42FF
:1007E0000ED196000CFA06F7BC4303FA06F7CE7852
:1007F0003C43282E00D14561CE78482E00D10561BA
:10080000521C082AE5D34460F0BDF0B54FF0000556
:100810000E4603002A4622D00EB3D8683038062888
:100820001BD2DFE800F0031D1D1D1D1D012710E078
:10083000586907EB42010844FFF7DEFC044658699B
:1008400000EB4200FFF7D8FC04EB0010B054521C40
:10085000D2B218689042EBD802E0012500E00225F0
:100860002846F0BDF0B54FF000040B4602002546C7
:100870007CD0002BFCD010783A2810D00120F0BD9D
:1008800002EB4407B81CFFF7B7FC0646781CFFF7DD
:10089000B3FC06EB00102844641CC5B2E4B2901C03
:1008A000FFF7AAFC0646501CFFF7A6FC06EB00105B
:1008B000001DA042E4D8E843401CC6B2002502EB6C
:1008C0004407B81C1D61FFF797FC0446781CFFF72E
:1008D00093FC04EB0010B0427AD1107A414EA0F1A3
:1008E0003001012402F10907062973D2DFE801F083
:1008F00003303B3B3F62901CFFF77EFC0546501CDB
:10090000FFF77AFC05EB00101860D01CFFF774FCB1
:100910000503101DFFF770FC05EB0025501DFFF7C8
:100920006BFC05EB0015901DFFF766FC291899601C
:10093000107A0C332C4A83E8910013680020002BB6
:100940009DD1338801EB0341284B19601460F0BD41
:10095000901CFFF751FC0546501CFFF74DFC05EBC2
:1009600000101860107AC3E903042FE038E0D86063
:10097000901CFFF741FC0546501CFFF73DFC05EBC2
:10098000001018603846FFF737FC050302F10A0033
:10099000FFF732FC05EB002502F10B00FFF72CFC02
:1009A00005EB001502F10C00FFF726FC2844586007
:1009B00030600AE0D860901CFFF71EFC0546501C12
:1009C000FFF71AFC05EB001018601C610020F0BD59
:1009D00004E0FFE7C3E903540220F8E70320F6E749
:1009E0000420F4E7200000201C0000201800002054
:1009F000FEE7000038B50168064A1140B1F1005F1A
:100A000006D1416800910C460068FFF7B4FBA0478F
:100A1000012038BD0000FE2FFEE7704730B50F23E0
:100A2000C27801780125F2B1144A126801F1E0217F
:100A300002F4E062C2F5E062120AC2F10404D3409B
:100A40004278A24084781C401443220181F800249B
:100A5000007800F01F018D404009800000F1E02087
:100A6000C0F8005130BD01F01F00854048098000EA
:100A700000F1E020C0F8805130BD00000CED00E036
:100A800070472DE9F04190460C4606460427FFF7D3
:100A900051FE00250BE021883068FFF731FE074644
:100AA000042808D13068A41C801C6D1C3060B5EB94
:100AB000580FF0D33846BDE8F08100002DE9F74724
:100AC0008BB08A46002107468DF8201001250C4680
:100AD0000E46084609910A918DF81810079133497E
:100AE000FF2288460A54401CFF28FAD94FF001091A
:100AF000012D06D09DF820102D484FF4807299B337
:100B000036E038196946FFF7ADFE8DF820009DF8F4
:100B1000180030B90398302803D102980A908DF854
:100B20001890009804EB40049DF820000D3460B943
:100B3000039830280ED0312807D0342806D0352825
:100B400004D0322802D0332800D00025385D3A285E
:100B5000CED0CFE708EB06016846FFF756FE8DF8CA
:100B6000200000980644F1E7FFE7BAF1020F03D036
:100B70009DF8201021B106E00D9B0A9919440BE065
:100B8000BAF1010F07D048468DF820009DF82000EB
:100B90000EB0BDE8F0870A99008801EB004009908B
:100BA000024909A8FFF76DFFEEE700002C000020C6
:100BB00020000020044A0029D16901D0014300E04F
:100BC0008143D1617047000000100240044A0029AF
:100BD000116901D0014300E08143116170470000B9
:100BE00000100240044A0029916901D0014300E04D
:100BF000814391617047000000100240044A0029BF
:100C0000D16801D0014300E08143D160704700000A
:100C100000100240F0B52C4B59682C4A11F00C0121
:100C20004FF00F0604D02A4C042903D0082903D022
:100C3000026028E0046026E059685A6806EA91419B
:100C400002F480320D2901D0891C00E00621BAB1DE
:100C5000DA6A12F4803FDA6A02F00F0202F101024E
:100C60000AD0DD6AC5F30317DD6A7F1CB4FBF7F415
:100C7000C5F30325AD1C6C43B4FBF2F24A43D7E73E
:100C8000144A514301605968134A06EA1111545C31
:100C90000168E14041605C68072505EA1424145DA1
:100CA00021FA04F484605C6805EAD424125DD14022
:100CB000C1605A68032303EA9232074B1B1F9A5CF8
:100CC000B1FBF2F10161F0BD0010024000127A00A8
:100CD00040787D0100093D000400002070470000BD
:100CE0000CB500222E4800920192016841F4803137
:100CF00001604FF4A063016801F400310191009993
:100D0000491C0091019911B900999942F3D10168E8
:100D1000890342D50121019122490A6842F010025B
:100D20000A600A6822F003020A600A6842F00202BE
:100D30000A604168416041684160416841F48061F6
:100D40004160C16A184A1140C162C16A174A114321
:100D5000C162016841F08061016001680901FCD550
:100D6000416821F47C114160416841F4E81141601F
:100D7000016841F08071016001688901FCD541681A
:100D800021F003014160416841F002014160416886
:100D9000C1F381010229FAD10CBD01920CBD000002
:100DA000001002400020024000F0FEFF4406010057
:100DB00070B53E49002426463DA00C6068E000F076
:100DC000DFFA0546422844D01EDC35283BD00EDC35
:100DD000322838D006DC0D2849D0302833D0312DC8
:100DE00042D130E033282ED0342D3DD12BE03828AD
:100DF00029D004DC362826D0372D35D123E03928F8
:100E000021D0412D30D124E0622828D00EDC4628A4
:100E10001FD006DC43281CD044281AD0452D23D1EE
:100E200017E0512837D0612D1ED118E0652816D063
:100E300004DC632813D0642D16D110E066280ED090
:100E4000712D11D127E000F00FFB05EB0414303CAD
:100E50000AE000F009FB05EB0414413C04E000F05B
:100E600003FB05EB0414613C002EA8D070BD206884
:100E7000401C07D018A000F00FFB2046BDE87040D2
:100E8000FFF7B8BD002634461AA000F005FB21A0EC
:100E900000F002FB93E72BA000F0FEFA512000F0D7
:100EA000E3FABDE8704027A000F0F6BA1800002071
:100EB0000A0D2D3E506C6561736520696E70757406
:100EC0002073746172742061646472657373206F3F
:100ED00066206865783A00000A0D2D3E4A756D70EF
:100EE00020746F20757365722070726F6772616D08
:100EF000212100000A0D2D3E5468652070726F6735
:100F000072616D20697320696E65666669636163ED
:100F1000792121000A0D2D3E506C656173652069B1
:100F20006E7075742073746172742061646472658C
:100F30007373206F662068657820616761696E3A17
:100F4000000000000A0D2D3E000000007047000068
:100F5000124810B5016841F0010101604168104A72
:100F60001140416001680F4A11400160016821F49D
:100F700080210160416821F4FE014160016821F097
:100F8000A05101604FF47F0181600021C162FFF731
:100F9000A7FE05494FF00060086010BD0010024038
:100FA0000000FFF0FFFFF6FE08ED00E010B50A4C70
:100FB0000121204600F0DEF800280CD00121204657
:100FC00000F013F805490120087005490868002859
:100FD00001D0401E086010BD000400402500002024
:100FE00014000020C94301827047C9430182704741
:100FF0000029018802D041F0010101E021F0010146
:10100000018070474B4910B5884202D10121C414B8
:1010100086E0B0F1804F09D0474988420DD10121C7
:101020000220FFF7D3FD0021022064E001210846E1
:10103000FFF7CCFD002101205DE04049884206D148
:1010400001210420FFF7C2FD0021042053E03C49A8
:10105000884206D101210820FFF7B8FD00210820B1
:1010600049E03849884206D101211020FFF7AEFD42
:10107000002110203FE03449884206D10121202080
:10108000FFF7A4FD0021202035E03049884202D13D
:101090000121441444E02E49884202D10121CC04AC
:1010A0003EE02C49884202D101210C0538E02A4952
:1010B000884202D101214C0532E02849884206D1FC
:1010C00001214020FFF782FD0021402013E0244948
:1010D000884206D101218020FFF778FD0021802081
:1010E00009E0204988420AD1841501212046FFF7F2
:1010F0006DFD00212046BDE81040FFF767BD1A498D
:10110000884202D101210C040AE01849884202D128
:1011100001214C0404E0164988420AD101218C04C3
:101120002046FFF76BFD2046BDE810400021FFF789
:1011300065BD10BD002C01400004004000080040C7
:10114000000C00400010004000140040003401403A
:10115000004C014000500140005401400018004084
:10116000001C0040002000400040014000440140BD
:101170000048014002460020138A92890B4202EA8D
:10118000010202D0002A00D001207047002A828983
:1011900001D00A4300E08A438281704730B502885B
:1011A0001B4C1C4DA0420DD0A8420BD0B0F1804F7B
:1011B00008D0194B984205D0184B984202D0184BD2
:1011C000984203D122F070034A881A43154B984283
:1011D00006D0154B984203D022F44073CA881A43B4
:1011E00002808A8882850A880285A0420AD0A842A5
:1011F00008D00E4A904205D00D4A904202D00D4AC6
:10120000904201D1097A01860121818230BD00001E
:10121000002C014000340140000400400008004060
:10122000000C00400010004000140040004001404D
:1012300000440140004801403EB501210220FFF773
:10124000B9FC134D2846FFF7DDFE6420ADF804001D
:1012500048F6A040ADF800000024ADF80640ADF817
:10126000024069462846FFF799FF01212846FFF70B
:10127000B9FE012211462846FFF788FF04482430B2
:10128000048000212846FFF7B3FE00F003F83EBDBE
:101290000004004008B51D208DF8000000208DF8E6
:1012A000010001208DF802008DF803006846FFF769
:1012B000B5FB08BD064A00211180054908310880A8
:1012C00003482438018841F0010101807047000083
:1012D000240400400548018840F2FE32114001809C
:1012E00002490020243108807047000000040040BB
:1012F0000029818902D041F4005101E021F400511C
:10130000818170471FB500F0A5F84FF4E1300090DF
:101310000020ADF80600ADF80400ADF80800ADF807
:101320000C000C20064CADF80A006946204600F07F
:101330003BF801212046FFF7DBFF00F003F81FBD5B
:101340000038014038B518208DF803004FF40070C4
:10135000ADF800000320094C8DF8020069462046D4
:10136000FFF705FA04218DF803100902ADF800100B
:1013700069462046FFF7FBF938BD00000008014030
:1013800010B5044801888906FCD500F068F8C0B2A1
:1013900010BD0000003801400246002012880A42B9
:1013A00000D001207047000030B50446008A85B0A7
:1013B0000D464CF6FF710840E98801432182A0895F
:1013C0004EF6F3110840A9882A8911436A8902431D
:1013D0001143A181A08A4FF6FF410840A98901432A
:1013E000A1826846FFF716FC1948844201D1039890
:1013F00000E00298A189090400EBC00101EB001094
:10140000296801D5490000E08900B0FBF1F06422B1
:10141000B0FBF2F109010B096FF018056B4300EB0B
:101420008300A3891D044FF0320306D503EBC000EF
:10143000B0FBF2F000F0070005E003EB0010B0FB9A
:10144000F2F000F00F000843208105B030BD00002D
:1014500000380140012144F20400FFF7C3BB80883B
:10146000C0F308007047000070B5074C05468021A6
:101470002046FFF791FF0028F9D029462046BDE815
:10148000704000F003B8000000380140C1F30801CB
:1014900081807047FEE700000FB4054B10B503A92B
:1014A000044A029800F018F810BC5DF814FB000024
:1014B000BD1600082800002002E008C8121F08C15D
:1014C000002AFAD170477047002001E001C1121FC5
:1014D000002AFBD1704700002DE9FF4F8BB09A46E0
:1014E0000F460546002606E025280BD052460D99EA
:1014F00090476D1C761C28780028F5D10FB0304637
:10150000BDE8F08F0024A0460122604900E00443BA
:1015100015F8013F203B02FA03F00842F7D1287882
:101520002E2817D115F8010F44F004042A280ED0F4
:101530006FF02F022878A0F1300109290AD808EBB2
:10154000880102EB410100EB01086D1CF2E757F83E
:10155000048B6D1C287869283ED006DC0028CDD08D
:1015600063280BD0642804D136E0732810D0752886
:101570004BD052460D999047761C85E017F8040B26
:101580008DF8000000208DF80100E946012003E0FD
:1015900057F8049B4FF0FF3061074FF0000401D46F
:1015A0000AE0641C44450DDA8442FADB19F80410A1
:1015B0000029F6D106E0641C8442FCDB19F8041013
:1015C0000029F8D1264404E019F8010B52460D9980
:1015D0009047641EF8D257E001CF4FF00A0B002865
:1015E00002DA40422D2102E0210504D52B218DF89D
:1015F0002410012103E0E10705D02021F7E70DF1D8
:10160000200908910CE00021F9E701CF4FF00A0B07
:10161000F9E75946FEF7C8FD01F1300209F8012D3E
:101620000028F6D1ADEB090000F1200B600701D4D2
:101630004FF00108D84502DDA8EB0B0000E00020C8
:101640008046002406E009A85246005D0D999047A7
:10165000641C761C08988442F5DB04E03020524676
:101660000D999047761CB8F10001A8F10108F5DC4E
:1016700005E019F8010B52460D999047761CBBF115
:101680000001ABF1010BF4DC6D1C34E7092801000B
:1016900030B5034600200246074C09E013F8015B11
:1016A000521C85EA102534F8155085EA002080B2D6
:1016B0008A42F3DB30BD0000FC1A000870B5074D0C
:1016C0000446C1B22846FFF7E1FE80212846FFF715
:1016D00063FE0028F9D0204670BD000000380140AC
:1016E000FFF736FCFFF70EFEFFF7A6FD23A0FFF77E
:1016F000D3FE2348FFF7D0FE2248FFF7CDFE224855
:10170000FFF7CAFE2148FFF7C7FE1D48FFF7C4FEDA
:101710001FA0FFF7C1FE1FA0FFF7BEFE244D25A0AE
:101720002968FFF7B9FE2C688CB14FF4FA76304681
:1017300000F07CF818B129A0FFF7AEFE05E029A063
:101740002968FFF7A9FE641EF1D1286850B9264C1C
:101750002168491C0BD025A0FFF79EFE72B62046DB
:10176000FFF748F9FFF70CFEFEF7CAFDFAE727A0DE
:10177000FFF792FE19A0FFF78FFEF3E70C000000C1
:10178000F81D0008FC1C0008501D0008A41D0008DE
:101790000D0A0000507265737320276827206B655F
:1017A0007920666F722068656C7021200D0A000038
:1017B00014000020507265737320616E79206B6590
:1017C0007920746F20696E7465727275707420610F
:1017D00075746F626F6F743A256400000A0D2D3EB8
:1017E0000000000008256400004000080A0D2D3E9E
:1017F0004A756D7020746F20757365722070726FFA
:101800006772616D21210A0D000000000A0D2D3E56
:101810005468652070726F6772616D20697320690A
:101820006E656666696361637921210070B5002584
:10183000FFF740FD0B490C4C0BE00A88900608D5D9
:101840000848001D0088C0F308054FF6DF700880C7
:1018500002E060780128F0D1FFF73CFD00206070C5
:10186000284670BD003801402400002010B5064C09
:1018700001462046FFF70AFE80212046FFF78CFD37
:101880000028F9D010BD0000003801402DE9F04FCC
:101890007D4C4FF0010A00267C4DA3B0D14627466F
:1018A000012802D0022802D005E0432002E04FF0D8
:1018B000000A152028708020229075A0FFF7ECFD0B
:1018C00041F28838AB464FF4FA70FFF7AFFF10F0E3
:1018D000FF0502D0FFF7FEFC08E09BF80000FFF7D1
:1018E000C5FFA8F101005FEA0008ECD155EA080045
:1018F00005D0422D0DD0EB46622D0AD094E066A0B3
:10190000FFF7CAFD62A0FFF7C7FD012023B0BDE8C5
:10191000F08F294666A0FFF7BFFD67A0FFF7BCFD6B
:101920005BA0FFF7B9FD0220F0E78DF8005000251D
:10193000D8460120FFF77AFF08EB05016D1C4870BF
:10194000852DF6D39DF802109DF80100C943C9B258
:10195000884273D1484571D1C34608F10305DDF8CB
:101960008880BAF1000F0CD041462846FFF790FE60
:1019700005EB08014A7815F8081002EB012189B23D
:101980000AE000215FEA080005D015F8012B401E8F
:101990001144C9B2F9D1287888424FD109F1010028
:1019A00000F0FF090025D84613E008EB0500C078D9
:1019B0003A2802D00A2802D006E0274604E0397A05
:1019C000302901D1761CF6B26D1C04F8010B802D74
:1019D00001D2102EE9D3102E1DD10A20207000262E
:1019E0003A4A01212848FFF769F8274C414610E0A0
:1019F0004819C0783A2802D00A2802D006E02746C3
:101A000004E03A7A302A01D1761CF6B204F8010BD0
:101A10006D1C802DECD30620FFF728FF0A20FFF76E
:101A200005FF10F0FF05F9D0012D3FF47EAF2846E9
:101A3000FFF71CFF042D03D014E0FFE71520EBE7B0
:101A40000620FFF713FF102E06D20A2020701F4A2F
:101A500001210D48FFF732F81DA0FFF71DFD0CA076
:101A6000FFF71AFD3220FFF7E1FEC0B2042808D1CB
:101A70000620FFF7FBFE16A0FFF70EFD04A0FFF700
:101A80000BFD002042E700002C0100202400002074
:101A90000A0D2D3E000000000A0D2D3E5472616EAD
:101AA000736D69742054696D65204F757421210030
:101AB0000A0D2D3E256300000A0D2D3E55736572FB
:101AC0002043616E63656C6564212100004000085D
:101AD0000A0D2D3E4C6F6164204865782046696C84
:101AE0006520546F20466C617368204F6620435216
:101AF00043204F4B205E5F5E00000000000021107D
:101B0000422063308440A550C660E7700881299167
:101B10004AA16BB18CC1ADD1CEE1EFF1311210020F
:101B200073325222B5529442F772D66239931883B7
:101B30007BB35AA3BDD39CC3FFF3DEE362244334DB
:101B400020040114E664C774A44485546AA54BB507
:101B500028850995EEE5CFF5ACC58DD553367226AF
:101B600011163006D776F6669556B4465BB77AA757
:101B700019973887DFF7FEE79DD7BCC7C448E558FB
:101B80008668A7784008611802282338CCC9EDD9A7
:101B90008EE9AFF9488969990AA92BB9F55AD44A4F
:101BA000B77A966A711A500A333A122AFDDBDCCBF7
:101BB000BFFB9EEB799B588B3BBB1AABA66C877C1B
:101BC000E44CC55C222C033C600C411CAEED8FFD47
:101BD000ECCDCDDD2AAD0BBD688D499D977EB66EEF
:101BE000D55EF44E133E322E511E700E9FFFBEEF97
:101BF000DDDFFCCF1BBF3AAF599F788F8891A98159
:101C0000CAB1EBA10CD12DC14EF16FE18010A10042
:101C1000C230E3200450254046706760B983989332
:101C2000FBA3DAB33DC31CD37FE35EF3B102901292
:101C3000F322D2323542145277625672EAB5CBA5FE
:101C4000A89589856EF54FE52CD50DC5E234C324E2
:101C5000A01481046674476424540544DBA7FAB7D2
:101C60009987B8975FE77EF71DC73CD7D326F23632
:101C70009106B01657667676154634564CD96DC91E
:101C80000EF92FE9C899E9898AB9ABA94458654882
:101C900006782768C018E1088238A3287DCB5CDB72
:101CA0003FEB1EFBF98BD89BBBAB9ABB754A545AD2
:101CB000376A167AF10AD01AB32A923A2EFD0FED3E
:101CC0006CDD4DCDAABD8BADE89DC98D267C076C22
:101CD000645C454CA23C832CE01CC10C1FEF3EFF12
:101CE0005DCF7CDF9BAFBABFD98FF89F176E367E72
:101CF000554E745E932EB23ED10EF01E0D0A2A2A66
:101D00002A2A2A2A2A2A2A2A2A2A2A2A2A2A2A2A33
:101D10002A2A2A2A2A2A2020426F6F744C6F616473
:101D2000657220666F722053544D3332463130371E
:101D300052432020202A2A2A2A2A2A2A2A2A2A2AE0
:101D40002A2A2A2A2A2A2A2A2A2A2A2A2A00000071
:101D50000D0A2A2A2A2A2A2A2A2A2A2A2A2A2A2A20
:101D60002A2A2A2A2A2A2A2A2A2A2A2A2A202044CD
:101D7000657369676E2062792059754E656E6720BC
:101D80004045435520202A2A2A2A2A2A2A2A2A2A52
:101D90002A2A2A2A2A2A2A2A2A2A2A2A2A2A2A2AA3
:101DA0002A0000000D0A2A2A2A2A2A2A2A2A2A2A4E
:101DB0002A2A2A2A2A2A2A2A2A2A2A2A2A2A2A2A83
:101DC0002A2A2A202020323031372E30332020207A
:101DD00020202020202020202A2A2A2A2A2A2A2AB3
:101DE0002A2A2A2A2A2A2A2A2A2A2A2A2A2A2A2A53
:101DF0002A2A2A2A2A0000000D0A2A2A2A2A2A2AFE
:101E00002A2A2A2A2A2A2A2A2A2A2A2A2A2A2A2A32
:101E10002A2A2A2A2A2A2A2A2A2A2A2A2A2A2A2A22
:101E20002A2A2A2A2A2A2A2A2A2A2A2A2A2A2A2A12
:101E30002A2A2A2A2A2A2A2A2A2A2A2A2A2A2A2A02
:101E40002A2A2A2A2A2A2A2A2A0000006C1E000886
:101E5000000000202C000000B8140008981E0008A4
:101E60002C000020FC0A0000C81400080204060828
:101E70000000000001020304010203040607080930
:101E80000900000000000000000000000008000041
:081E9000430000000000000007
:04000005080001519D
:00000001FF
